:100000000C9470000C9498000C9498000C94980038
:100010000C9498000C9498000C9498000C94980000
:100020000C9498000C9498000C9498000C949800F0
:100030000C9498000C9498000C9498000C949800E0
:100040000C94522F0C9498000C940B320C943D326B
:100050000C9498000C9498000C9498000C949800C0
:100060000C9498000C9498007C3C3E5E2B3D3F2FF6
:100070005B5D3B2C2A225C000000000800020100AE
:100080000003040700000000000000000102040853
:1000900010204080010204081020010204081020F2
:1000A000040404040404040402020202020203031E
:1000B0000303030300000000250028002B000000BC
:1000C0000000240027002A0029031D09620C87185C
:1000D000E61D9F228024162676286D321B334D03A1
:1000E00011241FBECFEFD8E0DEBFCDBF12E0A0E0ED
:1000F000B1E0E0E6F6E702C005900D92AE35B1073B
:10010000D9F725E0AEE5B2E001C01D92A33DB207EC
:10011000E1F710E0CEEDD0E004C02297FE010E948E
:10012000AF37C83CD107C9F70E942B330C94233B4F
:100130000C94000061E084E00E94903060E08AE06E
:100140000C94903060E084E00E94903061E08AE09E
:100150000C9490300F931F93CF93DF93EC018B019E
:1001600060E572E00E944635C8010E94FF22892B9B
:1001700051F0C8010E9408238A3029F0682FCE016F
:100180000E948836F1CFCE01DF91CF911F910F9160
:10019000089560E572E08BE692E00E94BE35109211
:1001A0006A02109271020895109260021092610228
:1001B000109262021092630260E572E084E692E0BF
:1001C0000E94BE3510925F0280E980935E0208951E
:1001D000FC01DB0112968D919C911397938382838E
:1001E00014964D915D916D917C9117974483558341
:1001F0006683778318964D915D916D917C911B97E5
:10020000408751876287738788EE91E0918380836E
:100210001C968C9184870895EF92FF920F931F9301
:10022000CF93DF93CDB7DEB769970FB6F894DEBFF3
:100230000FBECDBF8C010E94C900B801CE0101964E
:100240000E94E800BE016F5F7F4FCE0144960E947E
:10025000AA00BE016C5E7F4F8CE295E00E949F3346
:100260006CE171E0CE0101960E944635BE016F5FE0
:100270007F4FCE0144960E94D7367C01CE01019675
:100280000E94D834EF20E09419F010926A02A2C0C4
:1002900060E271E0CE0101960E944635BE016F5FBB
:1002A0007F4FCE0144960E94D7367C01CE01019645
:1002B0000E94D834EF20E09411F081E089C065E21B
:1002C00071E0CE0101960E944635BE016F5F7F4FFF
:1002D000CE0144960E94D7367C01CE0101960E9441
:1002E000D834EF20E09411F082E072C06AE271E04D
:1002F000CE0101960E944635BE016F5F7F4FCE0151
:1003000044960E94D7367C01CE0101960E94D834D3
:10031000EF20E09411F083E05BC06EE271E0CE016B
:1003200001960E944635BE016F5F7F4FCE01449615
:100330000E94D7367C01CE0101960E94D834EF206E
:10034000E09411F084E044C065E371E0CE010196D1
:100350000E944635BE016F5F7F4FCE0144960E94DA
:10036000D7367C01CE0101960E94D834EF20E0946C
:1003700011F085E02DC06DE371E0CE0101960E9481
:100380004635BE016F5F7F4FCE0144960E94D7363F
:100390007C01CE0101960E94D834EF20E09411F048
:1003A00086E016C065E471E0CE0101960E944635F4
:1003B000BE016F5F7F4FCE0144960E94D7367C010D
:1003C000CE0101960E94D834EF20E09419F087E026
:1003D00080936A0260E2CE0144960E940E377C014F
:1003E00060E2CE0144960E94B736AC014F5F5F4F8A
:1003F0009701BE016C5E7F4FCE0101960E941537BA
:10040000BE016F5F7F4F8BE692E00E94B235CE0156
:1004100001960E94D834B801CE0101960E94E800EE
:10042000BE016F5F7F4FCE010E960E94AA00BE01F3
:10043000625F7F4FCE0144960E94B235FC01E4809A
:10044000F580CE010E960E94D834EA94EF2881F10F
:10045000BE016C5E7F4F8CE295E00E949F336BE49F
:1004600071E0CE0101960E944635BE016F5F7F4F5D
:10047000CE0144960E94D7367C01CE0101960E949F
:10048000D834EF20E09439F266E571E0CE010196B0
:100490000E944635BE016F5F7F4FCE0144960E9499
:1004A000D73621E0019609F420E020937102AFCF06
:1004B000CE0144960E94D83469960FB6F894DEBFF8
:1004C0000FBECDBFDF91CF911F910F91FF90EF90A5
:1004D00008950F931F93CF93DF9300D000D000D0E7
:1004E000CDB7DEB78C010E949A0067E671E08CE21E
:1004F00095E00E9488334AE060915E02CE01019649
:100500000E94D635BE016F5F7F4F8CE295E00E945E
:100510009F33CE0101960E94D83461E771E08CE2EE
:1005200095E00E94883364E672E08CE295E00E94D8
:100530009F3360E871E08CE295E00E9488338091FF
:100540005F02882319F066E571E002C061E671E0A0
:100550008CE295E00E94B1336DE871E08CE295E0A9
:100560000E94883340916002509161026091620262
:10057000709163022AE0CE0101960E942F36BE01DF
:100580006F5F7F4F8CE295E00E949F33CE01019612
:100590000E94D8348CE295E00E949B3367E671E0BC
:1005A000C8010E9488334AE060915E02CE01019644
:1005B0000E94D635BE016F5F7F4FC8010E949F33F6
:1005C000CE0101960E94D83461E771E0C8010E9413
:1005D000883364E672E0C8010E949F3360E871E0EE
:1005E000C8010E94883380915F02882319F066E574
:1005F00071E002C061E671E0C8010E94B1336DE8AC
:1006000071E0C8010E9488334091600250916102FC
:1006100060916202709163022AE0CE0101960E940D
:100620002F36BE016F5F7F4FC8010E949F33CE01FE
:1006300001960E94D834C8010E949B3326960FB6BB
:10064000F894DEBF0FBECDBFDF91CF911F910F9108
:1006500008950F9300E020E040E060E08EE792E034
:100660000E94F43200E120E048EA60EC88E792E082
:100670000E94F43260E570E082E792E00E94E52497
:1006800060E572E08BE692E00E94463560E572E03C
:1006900084E692E00F910C94463584E692E00E9445
:1006A000D8348BE692E00C94D834CF93DF93CDB757
:1006B000DEB763970FB6F894DEBF0FBECDBF26E05E
:1006C00040E950ED63E070E08CE295E00E94A931D2
:1006D0000E94A20064E084E892E00E946B0781110E
:1006E00007C06EE971E08CE295E00E94B13332C040
:1006F0000E949A008CE492E09A83898380917A0226
:1007000090917B02A0917C02B0917D028B839C83AF
:10071000AD83BE83AE014F5F5F4F6AE071E085EE4F
:1007200094E00E94D52182E792E00E94A12462E732
:1007300072E0CE0107960E94A92565EE74E0CE0115
:1007400001960E947722BE016F5F7F4F8CE295E099
:100750000E94C33363960FB6F894DEBF0FBECDBFC1
:10076000DF91CF910895CF92DF92EF92FF920F9396
:100770001F93CF93DF93CDB7DEB7CF57D1090FB615
:10078000F894DEBF0FBECDBF7C016B010E94A200BA
:100790008E010B591F4FF7014081518121E064E820
:1007A00072E0C8010E948408C8010E94690688237B
:1007B00029F1C8010E942806892BC9F044E650E0BF
:1007C000BE016F5F7F4FC8010E9470340E949A0083
:1007D000CE0101967C01F70161917F01C6010E9463
:1007E000BC22E016F106B9F70E94A200E2CFCE01CA
:1007F00001960E943A33C8010E945706C158DF4F44
:100800000FB6F894DEBF0FBECDBFDF91CF911F9121
:100810000F91FF90EF90DF90CF900895DF92EF92CD
:10082000FF920F931F93CF93DF93CDB7DEB7AE97B1
:100830000FB6F894DEBF0FBECDBF85EE94E00E94E8
:10084000132262E772E0CE014C960E94A925CE01E8
:100850004C960E94D222882309F4FBC005E988EC5B
:10086000F82E94E9E92E21E9D22ECE014C960E9471
:100870005C24882309F4E1C0CE014C960E94FF223B
:10088000892B99F3BE01645E7F4FCE0101960E94D1
:10089000E800CE0101960E940C018CE295E00E94D6
:1008A0009B3360E871E08CE295E00E9488336091B0
:1008B000710270E04AE0CE0101960E940336BE014B
:1008C0006F5F7F4F8CE295E00E949F33CE010196CF
:1008D0000E94D83469EA71E08CE295E00E94883386
:1008E0004AE060916A02CE0101960E94D635BE01AF
:1008F0006F5F7F4F8CE295E00E949F33CE0101969F
:100900000E94D83462EB71E08CE295E00E9488335B
:100910006BE672E08CE295E00E949F338CE295E0FA
:100920000E949B330E94D4008091710280935F02E9
:1009300080916A0281116BC06EE28BE692E00E94A8
:10094000B736019619F4D0925E020EC00E94A20042
:1009500060916B0270916C0284E892E00E9412092F
:10096000811104C0E0925E0210E02AC0F0925E02A3
:1009700069EB71E084E692E00E94BE3540916B0223
:1009800050916C0221E064E872E0CE0101960E9471
:100990008408CE0101960E946906882361F0CE0189
:1009A00001960E9418066093600270936102809322
:1009B000620290936302CE0101960E94570611E0F5
:1009C000BE01645E7F4FCE0101960E94E800CE0119
:1009D00001960E946902112309F447CFBE01645EAB
:1009E0007F4FCE0101960E94E8006BE672E0CE01D7
:1009F00089960E94A935BE016F5F7F4FCE0189960F
:100A00000E94B303CE0189960E94D8342ECF009362
:100A10005E021092600210926102109262021092C5
:100A20006302BE01645E7F4FCE0101960E94E80022
:100A3000CE0101960E94690218CFCE014C960E9409
:100A4000492380915F02811104C0CE014C960E941F
:100A50002224AE960FB6F894DEBF0FBECDBFDF9155
:100A6000CF911F910F91FF90EF90DF900895CF935A
:100A7000DF931F92CDB7DEB76983DC01ED91FC9166
:100A80000280F381E02D41E050E0BE016F5F7F4FB7
:100A900009950F90DF91CF910895CF93DF93EC01EB
:100AA000898D9A8D009759F0FC01138212820E9461
:100AB000E311E98DFA8D22813381232B31F081E01E
:100AC00090E09B838A8380E090E0DF91CF9108954E
:100AD000FC01818D928D009711F00C94830F089585
:100AE000CF93DF931F92CDB7DEB741E050E0BE0158
:100AF0006F5F7F4F0E94940D019719F4898190E0F8
:100B000002C08FEF9FEF0F90DF91CF910895FC010E
:100B1000818D928D009711F00C9470058FEF9FEFEF
:100B200008950F931F93CF93DF938C01FC01818D68
:100B3000928D0097B9F00E947005EC018F3FFFEF96
:100B40009F0799F0F801818D928DFC0142855385B4
:100B50006485758541505109610971090E94E70E4C
:100B6000CE0105C080E090E002C08FEF9FEFDF91E3
:100B7000CF911F910F910895CF92DF92EF92FF9244
:100B80000F931F93CF93DF93EC017B016A011B82CC
:100B90001A8208EE13E020E030E00C831D832E83E0
:100BA0003F8387EC91E0998388838DE190E00E94F8
:100BB000C2379A8F898F009779F02DE1F701DC0118
:100BC00001900D922A95E1F74CE050E0B601CE017C
:100BD0000C960E94383A188EDF91CF911F910F9199
:100BE000FF90EF90DF90CF900895FC011382128266
:100BF00048EE53E060E070E044835583668377837A
:100C000087EC91E091838083128E118E1486089573
:100C1000DC015996ED91FC915A97309729F0628545
:100C200073858485958508956FEF7FEFCB010895D7
:100C3000DC015996ED91FC915A97309729F0638920
:100C4000748985899689089560E070E0CB010895E4
:100C5000CF92DF92EF92FF92CF93DF93EC01898DD9
:100C60009A8D892BD9F0CE010E9418066B017C0168
:100C7000CE010E940806A7019601261B370B480BE0
:100C8000590BDA01C901811530E89307A105B105B7
:100C900038F08FEF9FE7A0E0B0E002C080E090E086
:100CA000DF91CF91FF90EF90DF90CF900895CF9399
:100CB000DF93EC01898D9A8D009741F00E94CA0F55
:100CC000898D9A8D0E945A381A8E198EDF91CF9194
:100CD0000895DC015996ED91FC915A97309721F0D7
:100CE00081E09581911101C080E008951F93CF9319
:100CF000DF93CDB7DEB76D970FB6F894DEBF0FBEAA
:100D0000CDBFAB011C821B8229ED31E03A832983E0
:100D10001E8221E0BC01CE0101960E94FE1011E06E
:100D2000811102C010E004C0CE0101960E94CA0FDA
:100D3000812F6D960FB6F894DEBF0FBECDBFDF9149
:100D4000CF911F910895CF93DF93FB0120813181D3
:100D5000FC01E20FF31FE081EF3211F42F5F3F4FF0
:100D6000DA01E0E0F0E0EC01C20FD31FC881CF321E
:100D700049F0CC2339F031962F5F3F4FCD93EC30C3
:100D8000F10589F7E40FF51F1082FC01E20FF31F54
:100D900040814F3211F42F5F3F4FFB01318320839D
:100DA000FC01E20FF31F81E09081911101C080E00E
:100DB000DF91CF9108954F925F926F927F928F92C1
:100DC0009F92AF92BF92CF92DF92EF92FF920F93DA
:100DD0001F93CF93DF93CDB7DEB7C954D1090FB6B8
:100DE000F894DEBF0FBECDBF5C016B013A01490133
:100DF00019A218A289ED91E09F8F8E8F1BA21C82F1
:100E00001B829A8389831E822A961FAE1EAE2A9762
:100E10008B017E018EE1E80EF11C44244394AE0167
:100E2000455C5F4FBE01685B7F4FC5010E94A30612
:100E3000582E482F44259401BE01655C7F4FC801A0
:100E4000F3010995811108C00C151D0519F0C801A1
:100E50000E94CA0F80E027C05520B9F021E0AE0102
:100E6000455C5F4FB801C7010E94FE10582E0C155B
:100E70001D0599F0C8010E94CA0F552059F3902F03
:100E8000812F8701E92EF82ECACF0C151D0519F008
:100E9000C8010E94CA0F81E006C08823D9F28E01E2
:100EA0000F5F1F4FECCFC75BDF4F0FB6F894DEBF6D
:100EB0000FBECDBFDF91CF911F910F91FF90EF90AB
:100EC000DF90CF90BF90AF909F908F907F906F906A
:100ED0005F904F9008950F931F93CF93DF93EC0192
:100EE000462F61E00E945A0A811102C080E01DC0B5
:100EF0008E01045F1F4F41E0BE01C8010E942A1706
:100F0000882359F0B801CE018A960E94440D91E0E1
:100F1000811101C090E0892F08C040E0BE01C801E6
:100F20000E942A17882311F3EDCFDF91CF911F91F3
:100F30000F910895FC01DB0112968D919C911397FE
:100F40009383828389ED91E09183808314968C91C1
:100F50001497848315968C911597858316964D91D9
:100F60005D916D917C911997468357836087718756
:100F70001A964D915D916D917C911D974287538793
:100F8000648775871E964D915D916D917C91519707
:100F900046875787608B718B52968C915297828BC4
:100FA00053964D915D916D917C915697438B548BE7
:100FB000658B768B57964D915D916D917C915A978B
:100FC000478B508F618F728F5B968D919C915C9750
:100FD000948F838F08954F925F926F927F928F923A
:100FE0009F92AF92BF92CF92DF92EF92FF920F93B8
:100FF0001F93CF93DF93CDB7DEB7C754D1090FB698
:10100000F894DEBF0FBECDBF6C014A013901665DA9
:101010007F4F5E018EE1A80EB11CC5010E949A07A8
:101020001C821B8289ED91E09A8389831E82840150
:10103000FE0131967F015A2C4B2C6FE270E0C80103
:101040000E94263A0097E9F1F80120812F3219F425
:101050000F5F1F4FF2CF801B8D3008F08CE0A82E61
:10106000B12CA501B801CE01CB960E94383AEBE332
:10107000F0E0EC0FFD1FEA0DFB1D1082C7010E947E
:10108000CA0F21E0AE01455C5F4F652D742DC7018D
:101090000E94FE10811109C0F6011382128289EDAF
:1010A00091E091838083158216C00A0D1B1D852D4A
:1010B000942D0E94CA0FC2015E2C4F2CE92EF82EEF
:1010C000BCCF08191909F30111830083652D742D14
:1010D000C6010E949A07C601C95BDF4F0FB6F8949C
:1010E000DEBF0FBECDBFDF91CF911F910F91FF905B
:1010F000EF90DF90CF90BF90AF909F908F907F90B8
:101100006F905F904F9008959F92AF92BF92CF9251
:10111000DF92EF92FF920F931F93CF93DF93CDB7A0
:10112000DEB7C955D1090FB6F894DEBF0FBECDBFEB
:101130007C016B015A01922E9E01285A3F4FCE012D
:10114000CB960E94EB076A960EAD1FAD6A970A0D0B
:101150001B1DF801808181110AC0BE01655C7F4FB3
:10116000CE0101960E949A0743ED51E041C019A2B9
:1011700018A289ED91E09F8F8E8F1BA221968FADD3
:101180002197811104C0C7010E94F50537C0825024
:10119000823060F4B601665D7F4F292DA801CE0133
:1011A0004E960E94FE10811110C0EDCF292DA8018E
:1011B000BE01655C7F4FCE014E960E94FE108823D3
:1011C00011F3CE01CB960E94CA0F892D867041F093
:1011D00049A95AA96BA97CA9CE014E960E94E70E97
:1011E000BE01625E7F4FCE0101960E949A07A80160
:1011F000BE016F5F7F4FC7010E94BC05C701C75A80
:10120000DF4F0FB6F894DEBF0FBECDBFDF91CF9199
:101210001F910F91FF90EF90DF90CF90BF90AF9014
:101220009F900895FB01BC01665D7F4F20E030E098
:1012300046E756E0CF010C94DB061092890210922B
:101240008A0210928D0210928F0282E090E0A0E05C
:10125000B0E08093900290939102A0939202B09399
:1012600093021092A7021092B1021092B00289ED7F
:1012700091E09093AF028093AE021092B302089572
:101280009FB7F8942091210580911F05213019F412
:101290008DBB9FBF08958FBF089520912105222304
:1012A00099F03FB7F89420912105213059F42DB3DE
:1012B00020931F054DB320912005209524232DBB9D
:1012C0003FBF02C030931F058CBD9DBD08958EBDEC
:1012D00000000DB407FEFDCF8EB508958FEF0C947E
:1012E000670961E0FC0184810E9490308091CD0209
:1012F000882339F01092CD028091210581110C9440
:1013000040090895CF93DF93EC018091CD028111C4
:1013100009C081E08093CD028091CE029091CF02EE
:101320000E944D0960E08C81DF91CF910C94903048
:10133000CF93DF93EC018E81882389F08F8198858C
:101340009C012F5F3F4F38872F838230924018F4E3
:101350000E946E09F3CFCE010E9471091E82DF91B7
:10136000CF910895673028F026E1FC01258380E0C5
:101370000895623081F030F4662359F06130B1F4A1
:1013800080E515C0643059F040F0653079F482E5AD
:101390000EC080E505C081E503C081E508C082E597
:1013A0008093CE0281E08093CF02089583E58093FD
:1013B000CE021092CF0281E008950F931F93CF9336
:1013C000DF93EB010E949C2F8B010E946E098F3FDF
:1013D00049F00E949C2F601B710B6C177D07A8F3CE
:1013E00080E001C081E0DF91CF911F910F910895BE
:1013F000CF92DF92FF920F931F93CF93DF9300D092
:1014000000D0CDB7DEB76C01F62E29833A834B832B
:101410005C830E949809C6010E9482096CE271E017
:10142000C6010E94DD098F2D80640E94670908E1D2
:1014300010E05C814B813A812981DA01C901002EDB
:1014400004C0B695A795979587950A94D2F72983F6
:101450003A834B835C830E946709085011092981F4
:101460003A814B815C81083F8FEF180731F7FF20ED
:1014700029F0E8E0FE1621F08FEF03C085E901C0F6
:1014800087E80E94670910E00E946E09F6018287D2
:1014900087FF04C01F3F11F01F5FF6CF0F900F9022
:1014A0000F900F90DF91CF911F910F91FF90DF90E0
:1014B000CF900895BF92CF92DF92EF92FF920F9359
:1014C0001F93CF93DF93EC01B62E1B8619861E82E5
:1014D0001D824C830E949C2F8B0161E08C810E94B5
:1014E000573061E08C810E9490300E941B2F82E572
:1014F0008093CE021092CF028091CE029091CF02C3
:101500000E944D092AE0F22E8FEF0E946709FA949B
:10151000D9F78091210581110E944009CE010E94D6
:10152000820920E030E0A90160E0CE010E94F809C4
:10153000F82E8A8781E0F81649F00E949C2F601BE4
:10154000710B613D774068F381E04BC02AEA31E0DE
:1015500040E050E068E0CE010E94F80982FF02C03E
:10156000FB860DC094E0F92E0E946E098A87FA94DA
:10157000D9F78A3A11F082E034C082E08B878B85FC
:10158000823031F4C12CD12CE12C80E4F82E03C040
:10159000C12CD12C760120E030E0A90167E3CE0117
:1015A0000E94F809A701960169E2CE010E94F8099C
:1015B0008A87882349F00E949C2F601B710B613D34
:1015C000774048F388E00DC08B85823031F520E00C
:1015D00030E0A9016AE3CE010E94F809882381F076
:1015E00086E08D83CE010E94710980E0DF91CF916A
:1015F0001F910F91FF90EF90DF90CF90BF900895D3
:101600000E946E09807C803C11F483E08B870E94ED
:101610006E090E946E090E946E09CE010E94710936
:101620006B2DCE01DF91CF911F910F91FF90EF9025
:10163000DF90CF90BF900C94B2090F931F93CF937C
:10164000DF93EC010E949C2F8B010E946E098A8718
:101650008F3F49F40E949C2F601B710B6D327140CB
:10166000A0F38FE003C08E3F39F08DE08D83CE0173
:101670000E94710980E001C081E0DF91CF911F914C
:101680000F910895CF92DF92EF92FF920F931F93E5
:10169000CF93DF93EC0169010115110509F462C0D4
:1016A000C801820F931F8130924008F05DC08E8187
:1016B000882371F088819981AA81BB8148175907D5
:1016C0006A077B0729F48F819885C816D90610F51B
:1016D000488359836A837B838B85833039F039E073
:1016E000440F551F661F771F3A95D1F79A01AB013A
:1016F00061E1CE010E94F809882319F083E08D830F
:1017000033C0CE010E941D0B882371F118861F8201
:1017100081E08E838F8198858C159D0540F40E9411
:101720006E098F819885019698878F83F3CF670123
:10173000E00EF11ECE14DF0431F00E946E09F601B6
:1017400081936F01F7CF8F819885800F911F9887C4
:101750008F832985222319F08115924018F0CE013C
:101760000E94980981E004C0CE010E94710980E0C6
:10177000DF91CF911F910F91FF90EF90DF90CF906D
:101780000895EF92FF920F931F93790100E012E00A
:1017900020E030E00E94420B1F910F91FF90EF90EC
:1017A0000895CF92DF92EF92FF920F931F93CF9302
:1017B000DF9300D0CDB7DEB78C01862F49835A83E3
:1017C0000E9467094981C42E5A81D52EE12CF12C43
:1017D000F60181916F010E946709FFEFEF1AFF0A7E
:1017E000E11482E0F806A1F78FEF0E9467098FEFFE
:1017F0000E9467090E946E09F80182878F71853007
:1018000039F081E18583C8010E94710980E001C03F
:1018100081E00F900F90DF91CF911F910F91FF907A
:10182000EF90DF90CF9008950F931F93CF93DF93A6
:10183000EC018901411551056105710511F482E141
:1018400032C08B85833039F089E0440F551F661F05
:10185000771F8A95D1F79A01AB0168E1CE010E940A
:10186000F809882311F084E01EC0A8016EEFCE01B4
:101870000E94D10B8823C1F068E572E0CE010E947E
:10188000DD09811102C085E10EC020E030E0A90130
:101890006DE0CE010E94F809811104C00E946E091A
:1018A000882339F084E18D83CE010E94710980E0A4
:1018B00004C0CE010E94710981E0DF91CF911F9198
:1018C0000F91089580E58093CE021092CF02089583
:1018D000CF93DF93EC019C012A5F3F4F41E050E042
:1018E00060E070E08B8D9C8D0E94BF158823A1F075
:1018F0004F89588D698D7A8D452B462B472B71F476
:101900004E815F81688579854F8B588F698F7A8F7B
:101910008C8180688C8302C080E001C081E0DF910F
:10192000CF910895CF92DF92EF92FF921F93CF93C2
:10193000DF93EC010E94680C811102C080E04BC073
:10194000EB8DFC8DCE80DF80E884F98482E0C81ABC
:10195000D108E108F108058404C0CC0CDD1CEE1CA4
:10196000FF1C0A94D2F74685578560897189C40E99
:10197000D51EE61EF71E148181E0C81AD108E108C1
:10198000F108112361F0C701B601610F711D811DBE
:10199000911D0E940914882389F21150F2CFEB8D1A
:1019A000FC8DC12C82E0D82EE12CF12C058404C0E2
:1019B000CC0CDD1CEE1CFF1C0A94D2F74B895C8911
:1019C0006D897E894C0D5D1D6E1D7F1D4B8B5C8B63
:1019D0006D8B7E8B81E0DF91CF911F91FF90EF9017
:1019E000DF90CF900895CF93DF93EC01462F6E8563
:1019F0007F85888999890E94CE13882341F08A893E
:101A000020E2829FC001112487529D4F02C080E0D6
:101A100090E0DF91CF910895282FFB018BE030E219
:101A200031938150E9F7A22FB92F20E037E09D9143
:101A3000992319F19E3219F0E8E6F0E008C03A3037
:101A400011F128E03AE0F3CF31964917E1F04491E3
:101A50004111FACF3217B8F04FED490F4E3598F4D7
:101A600041E0420FFB01E20FF11D2FE9290F2A315E
:101A700008F490529083242FDACF81E0FB0190810B
:101A8000903209F480E008950F931F93CF93DF9372
:101A9000EC018B018D81882311F080E040C0FB01B7
:101AA00087898031B1F482E08D831F8A188E198E68
:101AB0001A8E408D518D60E070E095E0440F551F07
:101AC000661F771F9A95D1F74B8B5C8B6D8B7E8B46
:101AD00015C0803211F783E08D83FB01428D538D59
:101AE000648D758D4F8B588F698F7A8F9E012D5E17
:101AF0003F4FC8010E94B314882379F21C8F0B8FCB
:101B000081E08C831E821F82188619861A861B86A6
:101B10001C861D861E861F86188A198A1A8ADF91DE
:101B2000CF911F910F9108952F923F924F925F9204
:101B30006F927F928F929F92AF92BF92CF92DF92DD
:101B4000EF92FF920F931F93CF93DF93EC016B0102
:101B50005A018D81811103C08FEF9FEFDAC08C8114
:101B600080FFFACF4B895C896D897E898A859B8548
:101B7000AC85BD852501612C712C8A019B01081B58
:101B8000190B2A0B3B0B041515052605370518F410
:101B90005A01A81AB90A25011E0126E0220E311C9D
:101BA0004114510409F47BC04A855B856C857D85B1
:101BB0004A0181E09822ED818A019B01F9E0369586
:101BC000279517950795FA95D1F78B8D9C8DE23067
:101BD00051F4FC01628D738D848D958D600F711FA2
:101BE000821F931F3EC0FC0174807A94702281147E
:101BF0009104C9F4711017C0452B462B472B49F4AB
:101C00008F89988DA98DBA8D8E839F83A887B98778
:101C10000AC04E815F816885798591010E942F14E9
:101C2000882309F499CFEB8DFC8D6E817F818885A7
:101C300099856250710981099109058404C0660F74
:101C4000771F881F991F0A94D2F706851785208968
:101C50003189600F711F821F931F670D711D811DD8
:101C6000911D20E032E0281939093201241535058B
:101C700008F439012C8126FD04C06114F2E07F06CE
:101C8000A1F50091100110911101209112013091E4
:101C90001301601771078207930719F426C0C50165
:101CA00038C0760183019401AB01BC018091D70259
:101CB0009091D8020E94420B882309F44DCFC60CA4
:101CC000D71C04C0E81BF90BCE0EDF1E8A859B854E
:101CD000AC85BD85860D971DA11DB11D8A879B878B
:101CE000AC87BD87461857085BCF40E00E94CE13F3
:101CF000882309F431CFC40187529D4FD6019C013E
:101D0000260D371DFC01E217F307E1F241914D93D7
:101D1000FACFDF91CF911F910F91FF90EF90DF905D
:101D2000CF90BF90AF909F908F907F906F905F907B
:101D30004F903F902F900895FF920F931F93CF9352
:101D4000DF931F92CDB7DEB78C01FC018581823015
:101D500018F480E090E034C0F80142855385648532
:101D60007585A5E07695679557954795AA95D1F71E
:101D7000F42FFF70FF2E41E050E0BE016F5F7F4FF8
:101D8000C8010E94940D019719F4298130E002C026
:101D90002FEF3FEF2F3F3F4FE1F2F8014285538590
:101DA00064857585415E5F4F6F4F7F4F42875387D4
:101DB00064877587F0E2FF9EC001112487529D4F12
:101DC0000F90DF91CF911F910F91FF9008954F9247
:101DD0005F926F927F92AF92BF92CF92DF92EF921B
:101DE000FF920F931F93CF93DF93EC016A017B0166
:101DF0002D81222309F457C08B899C89AD89BE8926
:101E000084179507A607B70708F44DC04EC08A850A
:101E10009B85AC85BD85EB8DFC8DE585F0E0399625
:101E2000AC01BD0141505109610971090E2E04C078
:101E300076956795579547950A94D2F7970186014D
:101E4000015011092109310904C0369527951795CC
:101E50000795EA95D2F70417150726073707B0F557
:101E60008F89988DA98DBA8D8E839F83A887B98716
:101E7000280139015E0186E0A80EB11C411451040D
:101E80006104710461F14E815F81688579859501F6
:101E90008B8D9C8D0E942F1491E0491A5108610886
:101EA00071088111EBCF80E01FC02230C1F0C11456
:101EB000D104E104F10409F0AACF1E821F82188622
:101EC00019861A861B861C861D860DC0892B8A2BB7
:101ED0008B2B31F2041B150B260B370BC9CFCA868F
:101EE000DB86EC86FD8681E0DF91CF911F910F911B
:101EF000FF90EF90DF90CF90BF90AF907F906F906A
:101F00005F904F9008950F931F93CF93DF93EC0151
:101F10008D818823C9F18C8187FF30C061E0CE01BB
:101F20000E94F30C8C01009779F18D81823048F486
:101F30004B895C896D897E89F801448F558F668F46
:101F4000778F4F89588D698D7A8DF801538F428F25
:101F5000758B648BE091D002F091D102309759F0EB
:101F6000B8016A5E7F4FC80148960995F801808DD7
:101F7000918D938B828B8C818F778C83DF91CF9126
:101F80001F910F910C94931380E0DF91CF911F91DB
:101F90000F910895CF93DF93EC010E94830F882364
:101FA00019F01D8281E001C080E0DF91CF9108959A
:101FB0004F925F926F927F92AF92BF92CF92DF92D9
:101FC000EF92FF920F931F93CF93DF9300D000D037
:101FD000CDB7DEB75C016A017B01FC0185818130F0
:101FE000F1F4848181FF1BC0F50183899489A5895F
:101FF000B68984179507A607B70788F0892B8A2B1F
:102000008B2B09F479C0F501428453846484758470
:10201000B701A601C5010E94E70E811102C080E050
:102020006CC0F501838D948DC114D104E104F104D9
:1020300071F44789508D618D728D0E94D41688236A
:1020400071F3F501178A108E118E128E3AC0F501C8
:1020500046815781608571859E012F5F3F4F0E94A9
:102060002F148823E1F249815A816B817C81F5012B
:10207000838D948DFC012789203129F408EF1FEF0F
:1020800020E030E004C008EF1FEF2FEF3FE04017E3
:10209000510762077307A8F40E94D416882309F435
:1020A000BECFF50146815781608571850FEF1FEF27
:1020B0002FEF3FE0838D948D0E941E15882309F435
:1020C000AECFF501C38AD48AE58AF68A8481806816
:1020D0008483C5010E94830F882309F4A0CFB70130
:1020E000A6014C145D046E047F0410F4B301A20138
:1020F000C5010E94E70E01C081E00F900F900F9084
:102100000F90DF91CF911F910F91FF90EF90DF9093
:10211000CF90BF90AF907F906F905F904F90089559
:10212000FF920F931F93CF93DF93EC01F42E80E285
:10213000689FF0011124E752FD4F8385817129F0DA
:10214000842F827411F080E053C06A8B809110015B
:1021500090911101A0911201B09113018E879F8778
:10216000A88BB98B4489558960E070E0BA01552786
:102170004427028D138D20E030E0402B512B622B41
:10218000732B4F8B588F698F7A8F8385887151F4A9
:10219000048D158D268D378D0B8B1C8B2D8B3E8BD7
:1021A00081E00CC0803179F69E012D5E3F4F8B8D12
:1021B0009C8D0E94B314882331F284E08D838F2D8F
:1021C0008F708C831E821F82188619861A861B8642
:1021D0001C861D86F6FE0BC040E050E0BA01CE0121
:1021E000DF91CF911F910F91FF900C94D80F81E058
:1021F000DF91CF911F910F91FF900895AF92BF9201
:10220000CF92DF92EF92FF920F931F93CF93DF93C2
:10221000CDB7DEB72B970FB6F894DEBF0FBECDBF9C
:102220007C016B01CA01B22EF70125812111B9C0D1
:10223000BE016F5F7F4F0E940C0D882309F4B1C06F
:10224000F601838D948DF701948F838FF6011682AA
:102250001782108611861286138614861586A12C85
:10226000F601028513852485358583899489A5899E
:10227000B689081719072A073B07E8F545E03695A0
:102280002795179507954A95D1F70F70C6010E94BB
:102290009C0E009709F485C0FC012081222311F0D7
:1022A000253EB9F4A1100EC0F701028B4091100138
:1022B0005091110160911201709113014687578767
:1022C000608B718BFC018081AA24A3948111C8CFFB
:1022D00012C04BE050E0BC01CE0101960E94103AC2
:1022E000892B09F0BDCF8B2D8073803309F459C041
:1022F0004B2D602F52C08B2D8271823109F051C05D
:10230000AA2041F061E0C7010E94F30C8C01009704
:1023100079F447C0F6018581823009F442C0C601D4
:102320000E94920C8823E9F1F701128A09ED12E06C
:1023300080E2F80111928A95E9F78BE0FE0131966F
:10234000D80101900D928A95E1F7E091D002F091C9
:10235000D102309739F0B801625F7F4FC8014096D3
:10236000099509C081E298E2F801918B808B80E0A9
:1023700098E097878687F80180899189938B828B73
:10238000918F808F86859785978B868B0E9493137C
:10239000882339F04B2DF7016289C7010E94901004
:1023A00001C080E02B960FB6F894DEBF0FBECDBF04
:1023B000DF91CF911F910F91FF90EF90DF90CF9021
:1023C000BF90AF9008952F923F924F925F926F927D
:1023D0007F928F929F92AF92BF92CF92DF92EF92B5
:1023E000FF920F931F93CF93DF9300D000D01F92E3
:1023F000CDB7DEB78C017B013A01DC0115968C91DB
:1024000015978130C9F414968C9181FF15C082FF15
:102410001BC0F80143895489658976898285938533
:10242000A485B58584179507A607B70769F0C80185
:102430000E94E70E811108C081E090E0F8019383CB
:10244000828380E090E046C1630180C0D8015B9642
:102450008D919C915C97FC01F481F150B501A40130
:1024600029E076956795579547952A95D1F7F423F6
:10247000FD8321E09222FF2309F474C080E092E002
:102480008819990956018C159D0508F45C01D8013D
:102490005B96ED91FC915C9716962D903D904D903A
:1024A0005C901997B2E02B1A310841085108058455
:1024B00004C0220C331C441C551C0A94D2F7868598
:1024C0009785A089B189280E391E4A1E5B1EED81B1
:1024D0002E0E311C411C511CA114F2E0BF0609F064
:1024E00088C08091100190911101A0911201B091CA
:1024F000130182159305A405B50559F48FEF9FEFDD
:10250000DC018093100190931101A0931201B0930C
:1025100013019701B201A1018091D7029091D802D5
:102520000E94140C882309F487CF9EEFF91ACA1869
:10253000DB08F80182859385A485B5858A0D9B1DEE
:10254000A11DB11D82879387A487B587D8011A96EC
:102550008D909D90AD90BC901D97C114D10409F051
:1025600075CF8AC08114910409F088CF16964D91D9
:102570005D916D917C91199741155105610571052A
:1025800059F457968D919D910D90BC91A02D009777
:10259000A105B10541F521C09E012F5F3F4F0E946B
:1025A0002F14882309F44ECF89819A81AB81BC8195
:1025B000F801238D348DF9012789203129F448EF62
:1025C0005FEF60E070E004C048EF5FEF6FEF7FE027
:1025D00084179507A607B70730F0C8010E94680C5A
:1025E00081114CCF29CFF80186839783A087B187CB
:1025F00045CF8114910429F5D8011A964D915D912A
:102600006D917C911D9753968D919D910D90BC91EC
:10261000A02D481759076A077B0798F00E9493136B
:10262000882309F409CF20921001309211014092C1
:102630001201509213018091D60281608093D602DC
:1026400008C041E0C201B1010E94CE13882309F401
:10265000F3CEC40187529D4FD7019C012A0D3B1D2B
:10266000FC01E217F30719F04D914193FACFE81BF3
:10267000F90BEE0EFF1E5BCF53968D919D910D9041
:10268000BC91A02DF801248188159905AA05BB05E8
:1026900038F4838A948AA58AB68A206824830CC079
:1026A0008091D0029091D102892B31F06114710494
:1026B00019F02068F8012483D80114968C9183FDC9
:1026C00002C0C30107C0C8010E94830F882309F418
:1026D000B3CEF7CF0F900F900F900F900F90DF9128
:1026E000CF911F910F91FF90EF90DF90CF90BF900F
:1026F000AF909F908F907F906F905F904F903F90A2
:102700002F900895CF93DF931F92CDB7DEB76983E3
:1027100041E050E0BE016F5F7F4F0E94E3110F90D8
:10272000DF91CF9108958091D602882399F140914D
:10273000100150911101609112017091130129ED66
:1027400032E08091D7029091D8020E94140C882325
:1027500019F14091D2025091D3026091D40270914C
:10276000D502411551056105710591F029ED32E061
:102770008091D7029091D8020E94140C882361F0B6
:102780001092D2021092D3021092D4021092D5026B
:102790001092D60281E0089580E00895CF92DF92F2
:1027A000EF92FF92CF936B017C01C42F80911001B7
:1027B00090911101A0911201B09113018C159D050A
:1027C000AE05BF05D1F00E949313811102C080E0D5
:1027D0001AC029ED32E0B701A6018091D70290918D
:1027E000D8020E94C10B882391F3C0921001D092AD
:1027F0001101E0921201F09213018091D6028C2B0C
:102800008093D60281E0CF91FF90EF90DF90CF9040
:102810000895CF92DF92EF92FF926B017C010E94AC
:1028200093138823B1F0E9EDF2E0119284E0E93DE1
:10283000F807D9F7C0921001D0921101E09212016D
:10284000F09213018091D60281608093D60281E0DC
:1028500001C080E0FF90EF90DF90CF9008958F92BD
:102860009F92AF92BF92CF92DF92EF92FF920F931F
:102870001F93CF93DF938C016A017B01E901FC0177
:1028800081859285A385B4850196A11DB11D84170C
:102890009507A607B70710F480E058C0F8014389F0
:1028A0005489658976898789803129F4BB27AF2DC2
:1028B0009E2D8D2D09C0D701C60127E0B695A7959D
:1028C000979587952A95D1F74C015D01840E951E49
:1028D000A61EB71EC501B401809010019090110191
:1028E000A0901201B0901301681579058A059B0527
:1028F00089F4F8018789803199F4DD24EE24FF24DE
:10290000F601EE0FFF1FE752FD4F80819181A0E09D
:10291000B0E017C040E00E94CE138111EACFBCCFD7
:10292000E894C7F8DD24EE24FF24F601EE0FFF1F24
:10293000EE0FFF1FE752FD4F80819181A281B3818D
:10294000BF7088839983AA83BB8381E0DF91CF9195
:102950001F910F91FF90EF90DF90CF90BF90AF90BD
:102960009F908F9008954F925F926F927F92AF9257
:10297000BF92CF92DF92EF92FF920F931F93CF936C
:10298000DF9300D000D0CDB7DEB78C0149835A83E6
:102990006B837C835901C12CD12C7601412C42E000
:1029A000542E612C712C49815A816B817C819E014E
:1029B0002F5F3F4FC8010E942F14882359F1D30184
:1029C000C201F801058404C0880F991FAA1FBB1F0C
:1029D0000A94D2F7C80ED91EEA1EFB1E49815A81FD
:1029E0006B817C818789803129F488EF9FEFA0E09B
:1029F000B0E004C088EF9FEFAFEFBFE04817590782
:102A00006A077B0780F2F501C082D182E282F382FD
:102A100081E001C080E00F900F900F900F90DF9148
:102A2000CF911F910F91FF90EF90DF90CF90BF90CB
:102A3000AF907F906F905F904F9008954F925F920C
:102A40006F927F928F929F92AF92BF92CF92DF92BE
:102A5000EF92FF920F931F93CF93DF93EC016A01E4
:102A60007B0128013901423051056105710508F4E7
:102A700074C049855A856B857C854F5F5F4F6F4F6A
:102A80007F4F4C155D056E057F0508F466C08B8889
:102A90009C88AD88BE888F89803129F477276F2D77
:102AA0005E2D4D2D09C0B701A601E7E0769567952B
:102AB00057954795EA95D1F7840E951EA61EB71E29
:102AC0004091100150911101609112017091130118
:102AD00084169506A606B70671F48F89803199F49D
:102AE000DD24EE24FF24F601EE0FFF1FE752FD4F19
:102AF0005182408218C040E0C501B4010E94CE134B
:102B00008111EBCF2AC0E894C7F8DD24EE24FF241E
:102B1000F601EE0FFF1FEE0FFF1FE752FD4F408241
:102B20005182628273828091D60281608093D60244
:102B30008A89823080F08D819E81AF81B885880D31
:102B4000991DAA1DBB1D8093D2029093D302A0931E
:102B5000D402B093D50281E001C080E0DF91CF9133
:102B60001F910F91FF90EF90DF90CF90BF90AF90AB
:102B70009F908F907F906F905F904F9008952F92CD
:102B80003F924F925F926F927F929F92AF92BF92CD
:102B9000CF92DF92EF92FF920F931F93CF93DF9329
:102BA000CDB7DEB760970FB6F894DEBF0FBECDBFCE
:102BB0005C014D875E876F87788B1901D9014D9035
:102BC0005D906D907C90411451046104710431F06A
:102BD000BFEF4B1A5B0A6B0A7B0A10C0FC014080F6
:102BE000518062807380992493940D851E852F8572
:102BF0003889013011052105310509F0912CD501E5
:102C000019962D913D914D915C911C972F5F3F4FEF
:102C10004F4F5F4F29873A874B875C87730162016B
:102C20001D821E821F821886F50181859285A385EB
:102C3000B4850D811E812F813885081719072A0751
:102C40003B0708F056C029853A854B855C852C15D5
:102C50003D054E055F0550F4A2E0CA2ED12CE12CB3
:102C6000F12CB2E04B2E512C612C712C9E012F5F68
:102C70003F4FB701A601C5010E942F148823C9F157
:102C800049815A816B817C81D701C6010196A11DC2
:102C9000B11D452B462B472B19F02C013D010FC0D0
:102CA000AC01BD0144195509660977090D851E85DA
:102CB0002F853889401751076207730779F02D81F6
:102CC0003E814F8158852F5F3F4F4F4F5F4F2D8380
:102CD0003E834F8358876C017D01A6CF0FEF1FEF16
:102CE0002FEF3FE0B701A601C5010E941E1581111B
:102CF00018C080E041C0D701C6010197A109B10900
:102D00008D839E83AF83B88797018601AC01BD0197
:102D1000C5010E941E15882361F3CD80DE80EF80FF
:102D2000F8844C145D046E047F0428F3D1014D91A6
:102D30005D916D917C91411551056105710599F485
:102D4000F10140825182628273829920A1F0FFEFEB
:102D50004F1A5F0A6F0A7F0AD5014D925D926D92FC
:102D60007C92139708C093018201C5010E941E1531
:102D70008111E6CFBECF81E060960FB6F894DEBF3A
:102D80000FBECDBFDF91CF911F910F91FF90EF90BC
:102D9000DF90CF90BF90AF909F907F906F905F90AB
:102DA0004F903F902F900895AF92BF92CF92DF92B5
:102DB000EF92FF920F931F93CF93DF9300D000D039
:102DC000CDB7DEB75C016A017B0182E090E0A0E054
:102DD000B0E0F50180839183A283B3839E012F5FCE
:102DE0003F4FB701A601C5010E942F14882311F19E
:102DF00000E010E09801B701A601C5010E941E1570
:102E00008823C1F0C980DA80EB80FC80F5018789D6
:102E1000803129F488EF9FEFA0E0B0E004C088EF94
:102E20009FEFAFEFBFE0C816D906EA06FB06B0F287
:102E300081E001C080E00F900F900F900F90DF9124
:102E4000CF911F910F91FF90EF90DF90CF90BF90A7
:102E5000AF9008958F929F92AF92BF92CF92DF92E0
:102E6000EF92FF920F931F93CF93DF93EC01142FF8
:102E70007093D8026093D702442341F1453010F09B
:102E800080E0EFC040E060E070E0CB010E94CE1334
:102E90008823B1F320E1129FF0011124E957FB4F81
:102EA00080818F7769F784859585A685B785843677
:102EB0009105A105B10520F3C084D184E284F38497
:102EC000C114D104E104F10421F4DACFC12CD12CD6
:102ED000760140E0C701B6010E94CE13882381F23B
:102EE0008091E4029091E5028115924049F630917B
:102EF000E902332329F28091E7029091E802892BBD
:102F000009F4BECF2091E602222309F4B9CF3A8B0F
:102F10002C831D8630E041E050E06D85062FCA010C
:102F2000062E02C0880F991F0A94E2F72817390766
:102F300031F081E0860F8D87683078F3A1CF209142
:102F4000EF023091F0022115310519F040E050E018
:102F500008C02091FD023091FE024091FF02509185
:102F600000032D833E834F8358878091E702909121
:102F7000E80246015701880E991EA11CB11C8B8ADC
:102F80009C8AAD8ABE8AE091EA02F091EB02F98F49
:102F9000E88FA091E902B0E00E94A237680D791D88
:102FA0008A1D9B1D6A8F7B8F8C8F9D8F15E0EE0F86
:102FB000FF1F1A95E1F7E150FE4FEF2FFF27E6952F
:102FC000DC01CB018E0F9F1FA11DB11D8E879F8736
:102FD000A88BB98B8090EC029090ED028114910443
:102FE00019F0A12CB12C08C08090F9029090FA023F
:102FF000A090FB02B090FC02A7019601281B390BA0
:103000004A0B5B0BDA01C901880D991DAA1DBB1D76
:1030100004C0B695A795979587950A95D2F78987A5
:103020009A87AB87BC87853F3FE09307A105B10531
:1030300010F48CE014C0853F9F4FA105B10510F43A
:1030400080E10DC08091050390910603A0910703D4
:10305000B09108038A8F9B8FAC8FBD8F80E28F8BDE
:1030600081E0DF91CF911F910F91FF90EF90DF9062
:10307000CF90BF90AF909F908F9008950E9624E1CF
:10308000FC0111922A95E9F70895CF93DF93EC01A3
:10309000625F7F4F0E940033CE01DF91CF91089590
:1030A000CF93DF93EC016E5E7F4F0E940033CE0121
:1030B000DF91CF910895CF93DF93EC016A5E7F4F4C
:1030C0000E940033CE01DF91CF910895CF93DF931B
:1030D000EC01625E7F4F0E940033CE01DF91CF9101
:1030E000089580E3FB0180833296842F82958F7050
:1030F00090E1899F401911244A3014F4405D01C0C9
:10310000495C4293882311F0482FEFCF08950F9325
:1031100000E020E040E060E089ED94E00E94F432BD
:103120000F9108956F927F928F929F92AF92BF926C
:10313000CF92DF92EF92FF920F931F93CF93DF9383
:10314000CDB7DEB7AC970FB6F894DEBF0FBECDBFDC
:103150007C01862EB42EA52E20E2922ECE01019661
:103160006C01FC01292D11922A95E9F70FEF2FEF41
:103170004FEF6FEF86960E94F4328CE492E09AA3B0
:1031800089A389A59AA5ABA5BCA58BA39CA3ADA338
:10319000BEA387010D5B1F4F43E450E0BE016F5D8E
:1031A0007F4FC8010E946C26019609F4BFC081E0E0
:1031B00089838A8386E0782E7B821C82F701648172
:1031C0007581868197810E949B376D837E838F8373
:1031D0009887A986BA8680E890E09C878B874CE127
:1031E00050E0B601C8010E947826F601292D1192FF
:1031F0002A95E9F7570188E0A80EB11CF501D60120
:1032000001900D927A94E1F740E150E0B601C801D7
:103210000E947826F60111929A94E9F796E0692EB9
:10322000712C40E250E0B601C8010E947826F1E01E
:103230006F1A7108B1F783E6898392E89A8393E560
:103240009B838C8385E38D8381E08E838F829DE3D6
:10325000988797E099878A8786E0F501DE011B96BB
:1032600001900D928A95E1F78CE0898B8A8B6DED48
:1032700071E0CE0143960E94313AF7014385BE01C9
:10328000675E7F4FC7010E947118F7014485BE0138
:10329000655E7F4FC7010E947118F7014585BE0129
:1032A000635E7F4FC7010E9471184EE150E0B60186
:1032B000C8010E947826F3E08F121EC082E3898342
:1032C00084E08A83F70196859B8397859C83908908
:1032D0009D8391899E8396E39F838887828D8987CA
:1032E000838D8A87848D8B87858D8C874CE050E019
:1032F000B601C8010E94782687E3898386E08A8325
:1033000091E09B8393E09C838D838FE08E838AE39F
:103310008F838BE388878FEF898749E050E0B60180
:10332000C8010E947826C8010E947426AC960FB688
:10333000F894DEBF0FBECDBFDF91CF911F910F91EB
:10334000FF90EF90DF90CF90BF90AF909F908F90C5
:103350007F906F9008952F923F924F925F926F925D
:103360007F928F929F92AF92BF92CF92DF92EF9215
:10337000FF920F931F93CF93DF93CDB7DEB7E39701
:103380000FB6F894DEBF0FBECDBF7C012A013B0112
:1033900069010E949C2F4B015C0187010D5B1F4F4F
:1033A000C8010E9418271816190694F00E949C2F35
:1033B000681979098A099B0946165706680679062D
:1033C000F0F062E370E080E090E00E94CB2FE8CF65
:1033D00042E250E0BE016F5F7F4FC8010E94B526F8
:1033E0008981823031F4F80184899589833491058B
:1033F00041F019A6C8010E94562689A566C18FEF23
:1034000064C16D817E818F8198850E949B374B01BD
:103410005C01F601608371838283938346E050E010
:10342000B701685F7F4FCE014D960E94103A892BFD
:1034300099F4F70180819181A281B3818816990660
:10344000AA06BB0648F084819581A681B7818815BC
:103450009905AA05BB0528F4C8010E94562680E0FC
:1034600034C189899A89AB89BC89F7018687978796
:10347000A08BB18B3EECC32ED12CC8010E948C26B0
:10348000F1E0CF1AD108C9F719A6C70182969BA708
:103490008AA7F701B696FDA7ECA708969FA78EA767
:1034A0003C976F01899699AB88AB3897FBABEAAB39
:1034B0005701F6E1AF0EB11C47018EE1880E911C59
:1034C000C8010E943C26181619060CF093CFC801BB
:1034D0000E948C268333910509F4CDC0F4F4813029
:1034E0009105B9F11CF4892B59F3DFC083309105A4
:1034F000C1F1069709F0D9C0C8010E948C263C0191
:1035000044E050E0B401C8010E94B526212C312CC2
:103510007724F4E06F1A71083FC08A33910509F4EB
:103520007EC03CF48533910561F0C69709F43FC035
:10353000BCC08B33910509F488C08F3F910501F21F
:10354000B4C0C8010E948C26C8010E948C2689A79D
:10355000B7CFC8010E948C2644E050E06AA97BA93D
:103560003AC0C8010E948C263C0144E050E0B501FD
:10357000C8010E94B526212C312C772494E0691AC9
:103580007108261437040CF09BCFC8010E948C26CA
:10359000EFEF2E1A3E0AF5CF261437040CF090CF29
:1035A000C8010E948C268FEF281A380AF5CFC8016F
:1035B0000E948C26782EF701828D811110C0838D98
:1035C00081110DC0848D81110AC0858D811107C0C4
:1035D00044E050E0B601C8010E94B52671CFE8A9C9
:1035E000F9A92080318042805380B601CE018396B4
:1035F0000E9400338DA19EA1AFA1B8A582159305AD
:10360000A405B50529F3212C312C721409F458CFE7
:10361000C8010E948C26FFEF2F1A3F0AF6CFC8017F
:103620000E948C2644E050E06CA57DA5C8010E9454
:10363000B526F70166A177A180A591A50E949B37C9
:1036400066A377A380A791A73BCFC8010E948C26D1
:1036500044E050E06EA57FA5C8010E94B526F701A1
:1036600062A573A584A595A50E949B3762A773A741
:1036700084A795A725CFC8010E948C2644E050E07E
:103680006AA57BA5C8010E94B526F70162A173A1B6
:1036900084A195A10E949B3762A373A384A395A3E1
:1036A00066A777A780AB91AB0BCFC8010E948C2691
:1036B000382E612C712C361409F402CFC8010E94F7
:1036C0008C26FFEF6F1A7F0AF6CFE3960FB6F894B9
:1036D000DEBF0FBECDBFDF91CF911F910F91FF9045
:1036E000EF90DF90CF90BF90AF909F908F907F90A2
:1036F0006F905F904F903F902F9008952F923F9240
:103700004F925F926F927F928F929F92AF92BF92F1
:10371000CF92DF92EF92FF920F931F93CF93DF939D
:1037200000D000D01F92CDB7DEB78C0120ED37E07E
:1037300040E050E061E070E080E090E00E94B7344B
:10374000D80114966D937D938D939C931797F801F0
:1037500060837183828393834801F3E48F0E911C0D
:10376000C4010E94572664E470E0C4010E94EB2665
:10377000882309F434C10E949C2F6B017C01212C09
:10378000312C1D82580182E4A80EB11C48EE442E53
:1037900043E0542E612C712CF5018081833009F4B3
:1037A00005C181111FC0F80184819581A681B7816F
:1037B0000196A11DB11D84839583A683B7830E94C2
:1037C0009C2F6C197D098E099F09A30192010E940B
:1037D0005A37A90161E0C8010E94921881E0D50121
:1037E0008C93C6C08430F9F4F80184819581A68158
:1037F000B7810196A11DB11D84839583A683B783EC
:103800000E949C2F6C197D098E099F09A3019201CA
:103810000E945A37A90163E0C8010E949218E2E0B1
:10382000D501EC93A5C0813069F5D801DA964D91A8
:103830005D916D917C91DD979E012F5F3F4FC80197
:103840000E94AB198D83823009F092C089819A81E0
:10385000AB81BC81F80184839583A683B7830E94E2
:103860009C2F6C197D098E099F09A30192010E946A
:103870005A37A90163E0C8010E949218ED81D50171
:10388000EC937CC0823009F073C0D801DA964D9178
:103890005D916D917C91DD979E012F5F3F4FC80137
:1038A0000E94AB198D83853009F05CC083E0F5017F
:1038B0008083F80182A193A1A4A1B5A1892B8A2BB1
:1038C0008B2B41F484E893E0A0E0B0E082A393A3C3
:1038D000A4A3B5A3F80186A197A1A0A5B1A5892BA2
:1038E0008A2B8B2B61F482A193A1A4A1B5A1B695DB
:1038F000A7959795879586A397A3A0A7B1A7F80149
:1039000082A593A5A4A5B5A5892B8A2B8B2BA9F4F9
:1039100082A193A1A4A1B5A1AC01BD0123E076953C
:103920006795579547952A95D1F7841B950BA60B5C
:10393000B70B82A793A7A4A7B5A7F80186A197A163
:10394000A0A5B1A586A797A7A0ABB1AB82A593A56B
:10395000A4A5B5A582AB93ABA4ABB5AB22242394AD
:10396000312C0CC0FD81F63019F4D5011C9206C033
:10397000BD81BF3F19F4F50110821D82F1E02F16C1
:10398000310409F409CF0E949C2F6C197D098E091E
:103990009F09D801D6962D913D914D915C91D99773
:1039A000261737074807590708F0F6CEC4010E94CA
:1039B0005726F80184819581A681B7810196A11DC2
:1039C000B11D84839583A683B7830E949C2FF80141
:1039D000FE966083718382839383C10102C080E07D
:1039E00090E00F900F900F900F900F90DF91CF917C
:1039F0001F910F91FF90EF90DF90CF90BF90AF900D
:103A00009F908F907F906F905F904F903F902F90FE
:103A10000895CF92DF92EF92FF920F931F93CF936F
:103A2000DF93EC010E949C2F6B017C018E01025CF4
:103A30001F4FF80180819181A281B381A701960176
:103A4000281B390B4A0B5B0BCA01B901683E33E0F6
:103A500073078105910508F441C028EE33E040E08A
:103A600050E00E945A37C61AD70AE80AF90AF80144
:103A7000C082D182E282F3828EA59FA5A8A9B9A9AE
:103A800069017A01CC0CDD1CEE1CFF1C8C159D0518
:103A9000AE05BF0528F41EA61FA618AA19AA08C0BD
:103AA000821B930BA40BB50B8EA79FA7A8ABB9AB3A
:103AB0008AA99BA9ACA9BDA98C159D05AE05BF051A
:103AC00028F41AAA1BAA1CAA1DAA08C0821B930BC1
:103AD000A40BB50B8AAB9BABACABBDAB8EA59FA5C6
:103AE000A8A9B9A9892B8A2B8B2B69F4FE01EE5B5F
:103AF000FF4F8081833039F484E08083CE010E94BF
:103B00007E1B019602C080E090E04AA95BA96CA9E7
:103B10007DA9452B462B472B81F4FE01EE5BFF4F21
:103B20002081233011F0211108C01082CE010E94A3
:103B30003E18CE010E947E1B0396DF91CF911F910C
:103B40000F91FF90EF90DF90CF900895FB0142819D
:103B5000538164817581FC0142835383648375833F
:103B6000178216820895FB0120E080E090E06AE071
:103B70003191332309F170ED730F7A3080F4DC0159
:103B80006A9FC0016B9F900D1124C097830F911DF8
:103B900037FD9A958F3F910559F350F314C03E328B
:103BA00091F4233081F0DA01A20FB11D12968C93AB
:103BB0002F5F80E090E0DCCF233029F4FA01858389
:103BC00081E090E0089580E090E008950F9300E098
:103BD00020E040E060E08FED94E00E94F4320F912D
:103BE0000895AF92BF92CF92DF92EF92FF920F9320
:103BF0001F93CF93DF9300D000D01F92CDB7DEB7D5
:103C00008C017B010E949C2FF801778366837627C5
:103C1000672776277A836983085F1F4F42E050E069
:103C2000BE016F5F7F4FC8010E94782681E090E05F
:103C30009C838B8342E050E0BE016D5F7F4FC801E3
:103C40000E94782680E091E09C838B8342E050E0E4
:103C5000BE016D5F7F4FC8010E9478261C821B82C7
:103C600042E050E0BE016D5F7F4FC8010E947826A0
:103C700042E050E0BE016D5F7F4FC8010E94782690
:103C800042E050E0BE016D5F7F4FC8010E94782680
:103C90006701F6018081882311F1F7016F0181919D
:103CA000811115C05601AE18BF081A141B0494F4F4
:103CB000AD8241E050E0BE016B5F7F4FC8010E94C2
:103CC0007826A501B701C8010E94782603C08E326C
:103CD00029F7E8CF7601FFEFEF1AFF0ADACF1D824E
:103CE00041E050E0BE016B5F7F4FC8010E94782623
:103CF000E12CFF24F394FC82EB8242E050E0BE0111
:103D00006D5F7F4FC8010E947826FC82EB8242E003
:103D100050E0BE016D5F7F4FC8010E94782681E0B0
:103D200090E00F900F900F900F900F90DF91CF9138
:103D30001F910F91FF90EF90DF90CF90BF90AF90C9
:103D400008954F925F926F927F928F929F92AF925F
:103D5000BF92CF92DF92EF92FF920F931F93CF9378
:103D6000DF93CDB7DEB763970FB6F894DEBF0FBE13
:103D7000CDBF7C015B016A010E949C2F2B013C019D
:103D80008701085F1F4F4501A12CB12CC8010E947B
:103D900018271816190694F00E949C2F64197509AB
:103DA0008609970986169706A806B906D0F062E339
:103DB00070E080E090E00E94CB2FE8CFF7014281D5
:103DC000538164817581808D918DA28DB38D48174B
:103DD00059076A077B0741F4848D958DC59721F4B7
:103DE00006C08FEF9FEFFAC08EEF9FEFF7C0C801BC
:103DF0000E943C260C97ECF04CE050E0BE016F5F57
:103E00007F4FC8010E94B5266C818B810E94D334FC
:103E10009A8B898BF701E680F7806A8189810E94FD
:103E2000D334E816F90641F489899A8997FF04C0CA
:103E300009C08DEF9FEFD2C0C8010E9456268CEFBB
:103E40009FEFCCC08F709270892B31F0C8010E9417
:103E500056268BEF9FEFC2C068858F810E94D334B6
:103E60005C01009719F0E12CF12C23C0C8010E94DD
:103E700056268AEF9FEFB2C041E050E0BE01635F7B
:103E80007F4FC8010E94B5268D8581111AC08D858E
:103E90008111F2CFC8010E948C26C8010E948C2695
:103EA000C8010E948C26C8010E948C26FFEFEF1AE1
:103EB000FF0A6E818D810E94D334E816F906E0F284
:103EC0000AC08D859FEF980F9D87882301F3C80155
:103ED0000E948C26F6CFE12CF12C41E050E0BE018F
:103EE0006D5E7F4FC8010E94B5268B89982F907C0C
:103EF00061F4882371F08B899FEF980F9B8B882347
:103F000041F0C8010E948C26F6CFC8010E948C2681
:103F10001B8A8B898111E1CF42E050E0BE01615FD5
:103F20007F4FC8010E94B52642E050E0BE01635FAA
:103F30007F4FC8010E94B526C8010E948C26C80187
:103F40000E948C26C8010E948C26C8010E948C26E3
:103F500042E050E0BE016F5E7F4FC8010E94B5266F
:103F60008F8598898115914029F48D859E858115CD
:103F7000914019F0812C912C16C089899A8981155C
:103F8000944031F0C8010E94562687EF9FEF26C06B
:103F9000B6016E5F7F4F44E050E0C8010E94B52635
:103FA00081E090E01BC089899A8998278927982702
:103FB0008816990638F4C8010E948C262FEF821AC1
:103FC000920AF1CF8FEFE81AF80AEA14FB0409F01D
:103FD00084CFC8010E94562686EF9FEF63960FB6E6
:103FE000F894DEBF0FBECDBFDF91CF911F910F912F
:103FF000FF90EF90DF90CF90BF90AF909F908F9009
:104000007F906F905F904F9008958F929F92AF92A4
:10401000BF92CF92DF92EF92FF920F931F93CF93B5
:10402000DF9300D000D000D0CDB7DEB78C015B01AC
:104030006A010E94B31D4C01009709F05DC0F801B0
:1040400042815381648175818091E1049091E20401
:10405000A091E304B091E404481759076A077B076D
:1040600009F44EC00E949C2F7801F8E0EF0EF11C7D
:104070006F7077277C5FC7010E94EB26813009F0C3
:1040800043C08CE492E09A838983F8018281938112
:10409000A481B5818B839C83AD83BE8345E350E0CF
:1040A000BE016F5F7F4FC7010E946C26892B19F4F8
:1040B000812C912C1DC0B501C8010E94F11D892BD6
:1040C000B9F3C7010E947426892B91F333E0A32E24
:1040D000B12CA60168E873E1C8010E94A11E4C0141
:1040E000F1E0AF1AB10821F08F3F2FEF920789F36B
:1040F000C7010E94572608C088248394912C04C0CD
:104100009EEF892E99249A94C40126960FB6F894AE
:10411000DEBF0FBECDBFDF91CF911F910F91FF90FA
:10412000EF90DF90CF90BF90AF909F908F900895C9
:1041300080912105882361F09FB7F8942091210593
:1041400080911F05213019F48DBB9FBF08958FBF4B
:10415000089544E050E0BC0181E090E00C94122D01
:1041600044E050E0BC0185E090E00C94122D44E066
:1041700050E0BC018FE090E00C94122D8F929F9242
:10418000AF92BF92CF92DF92EF92FF920F931F9365
:10419000CF93DF9300D0CDB7DEB74C016A01590150
:1041A0008FE095E069837A830E94AA2C80E590E0F5
:1041B0000E944D0946E050E069817A8189E090E0F3
:1041C0000E94122DC60102960E94B720C8010296D5
:1041D0000E94A920C70102960E94B0200E94982048
:1041E000F5014281538164817581F40142835383D7
:1041F000648375830F900F90DF91CF911F910F9182
:10420000FF90EF90DF90CF90BF90AF909F908F90F6
:1042100008956F927F928F929F92AF92BF92CF92AA
:10422000DF92EF92FF920F931F93CF93DF93CDB75F
:10423000DEB76E970FB6F894DEBF0FBECDBF6C0130
:104240005B017A014901380100E02FEF4FEF6FEF7A
:10425000CE0149960E94F4322CE432E03A8329835D
:104260008B8D9C8DAD8DBE8D8B839C83AD83BE83EA
:1042700038872F83F30182819381A481B581898757
:104280009A87AB87BC873E872D87F4018281938113
:10429000A481B5818F87988BA98BBA8B3C8B2B8B94
:1042A000F70142815381648175814D8B5E8B6F8BE9
:1042B000788FCE0101967C018E01095F1F4F9E0110
:1042C000235F3F4FAE014D5E5F4FB501C6010E94B7
:1042D000BE206E960FB6F894DEBF0FBECDBFDF9145
:1042E000CF911F910F91FF90EF90DF90CF90BF90F3
:1042F000AF909F908F907F906F900895CF92DF92B4
:10430000EF92FF920F931F93CF93DF93CDB7DEB75A
:1043100068970FB6F894DEBF0FBECDBF6B01790171
:10432000DA0112964D915D916D917C9115974D8BAF
:104330005E8B6F8B788FACE4B2E0BA83A98321E007
:10434000288F0D891E892F89388D0B831C832D831F
:104350003E83B887AF83F7010281138124813581C1
:1043600009871A872B873C87BE87AD874F87588B75
:10437000698B7A8B8E010F5F1F4F9E01295F3F4F24
:10438000AE01435F5F4FB6010E94092168960FB6E8
:10439000F894DEBF0FBECDBFDF91CF911F910F917B
:1043A000FF90EF90DF90CF9008950F931F93CF93DE
:1043B000DF93CDB7DEB762970FB6F894DEBF0FBEBE
:1043C000CDBFDB01FA0142815381648175814F8742
:1043D000588B698B7A8BECE4F2E0FA83E98321E075
:1043E0002A8B0F85188929893A890B831C832D8391
:1043F0003E83F887EF8349875A876B877C879E01C6
:104400002F5F3F4FAE01495F5F4FBD010E947E218C
:1044100062960FB6F894DEBF0FBECDBFDF91CF918D
:104420001F910F910895EF92FF920F931F93CF93D7
:10443000DF9300D000D000D0CDB7DEB78C01FC01F7
:1044400086819781009709F442C00E94091D7C0172
:104450008230910521F084E0E816F104D1F580E581
:1044600090E00E944D09F80166817781CE010196A6
:104470000E944518CE0103960E94B720F80166817C
:104480007781CE0101960E945B18CE0103960E94AF
:10449000A920F80166817781CE0101960E9450180B
:1044A000CE0103960E94B0200E949820F8016681F8
:1044B0007781CE0101960E9466184B815C816D81E7
:1044C0007E81F801428353836483758302C0E12CAB
:1044D000F12CC70126960FB6F894DEBF0FBECDBFF4
:1044E000DF91CF911F910F91FF90EF900895CF939F
:1044F000DF93EC010E94EA3280E590E00E944D09D2
:10450000BE016E5F7F4F44E050E08FE090E00E947C
:10451000432E0E949820CE01DF91CF9108952CE484
:1045200032E0FC0131832083FB01428153816481AD
:104530007581FC01428353836483758308950F93CF
:1045400000E020E040E060E085EF94E00E94F4327B
:1045500085EE94E00F910C94EA3281E0862708956D
:10456000862F0895DC01ED91FC91048CF58DE02DF2
:10457000099591E089270895CF93DF931F92CDB7D6
:10458000DEB76983DC01ED91FC910280F381E02DBF
:1045900041E050E0BE016F5F7F4F09950F90DF91C2
:1045A000CF91089521E0FC018485843009F420E056
:1045B000822F0895FC019485FB018485981303C024
:1045C00081E0943009F480E008950F931F93CF9316
:1045D000DF93EC018A018C85843021F00E94532AFC
:1045E000892B39F481E090E09B838A8380E090E01E
:1045F00001C0C801DF91CF911F910F910895FC0177
:104600008485843011F00C944A2B80E090E008956A
:10461000CF93DF931F92CDB7DEB741E050E0BE01EC
:104620006F5F7F4FFC0184850E94EA2A18161906E5
:104630001CF4898190E002C08FEF9FEF0F90DF9113
:10464000CF910895FC0184850C94EA2A0F931F935F
:10465000CF93DF931F92CDB7DEB78C01DC01ED91D4
:10466000FC910480F581E02D0995892B51F0BE0164
:104670006F5F7F4FF80184850E94752B898190E0E0
:1046800002C08FEF9FEF0F90DF91CF911F910F919D
:104690000895FC0184850C94A42BCF92DF92EF92B5
:1046A000FF920F931F93CF93DF93CDB7DEB7AF97F2
:1046B0000FB6F894DEBF0FBECDBF7C018B016A013F
:1046C000CE0101960E94EA32CE0109960E94FE2791
:1046D000CE018A960E94EA3265EE74E0CE0184969D
:1046E0000E948F22BE016C5D7F4FCE0101960E9419
:1046F000A61DAE01465D5F4FB801CE0101960E9436
:10470000052081309105C1F4D701ED91FC9104841D
:10471000F585E02D8CE492E09DA38CA30CA51DA54E
:104720002EA53FA50EA31FA328A739A7A601BE014A
:104730006C5D7F4FC7010995AF960FB6F894DEBF49
:104740000FBECDBFDF91CF911F910F91FF90EF90E2
:10475000DF90CF900895FC01262F1382128248EE3D
:1047600053E060E070E0448355836683778388EE8E
:1047700091E09183808324870895FC0184858430AF
:1047800011F00C94FD2880E00895DF92EF92FF92E3
:104790000F931F93CF93DF93EC017B018A018C85EC
:1047A000843009F045C0D12C8D2D0E94FD28811147
:1047B00002C0DC8607C08B7F8831D9F3D39484E0B4
:1047C000D812F2CF8C85843099F120911401309168
:1047D00015012F5F3F4F11F420E030EC30931501AD
:1047E00020931401409114015091150120E061E0E3
:1047F0000E944F29B7016E5F7F4FA8018C850E94F0
:10480000D529811103C084E08C8712C0CE010E949B
:10481000BD23873151F061E070E080E090E00E94BC
:10482000CB2FCE010E94BD23ECCF81E090E002C0EF
:1048300080E090E0DF91CF911F910F91FF90EF907A
:10484000DF900895CF92DF92EF92FF92CF93DF93A4
:10485000EC018C85843049F10E942D2A0E949C2F06
:104860006B017C01CE010E94BD238823A1F061E091
:1048700070E080E090E00E94CB2F0E949C2F6C198A
:104880007D098E099F09683E73408105910550F3AB
:104890008C850E942529EC85F0E0EE0FFF1FE35187
:1048A000FB4F1182108284E08C87DF91CF91FF90C3
:1048B000EF90DF90CF900895CF93DF93EC018C853C
:1048C0008430D1F0CE010E94BD238431A9F0882329
:1048D00099F0883189F08C3169F4E881F98104809C
:1048E000F581E02DCE01099521E0892B09F420E026
:1048F000822F03C081E001C080E0DF91CF91089555
:104900000F9300E020E040E060E08BEF94E00E9435
:10491000F4320F910895CF93DF931F92CDB7DEB796
:104920006983DC01ED91FC910280F381E02D41E08F
:1049300050E0BE016F5F7F4F09950F90DF91CF91DF
:104940000895EF92FF920F931F93CF93DF93CDB70C
:10495000DEB72D970FB6F894DEBF0FBECDBF7C013A
:1049600000E010E0602FCE0101960E94AB23CE0143
:1049700001960E94BD23811116C0F7014481558123
:1049800020E061E0802F0E944F29802F0E94A32900
:10499000F70184819581F801EE0FFF1FE351FB4F72
:1049A0009183808305C00F5F1F4F04301105D1F63E
:1049B0002D960FB6F894DEBF0FBECDBFDF91CF911D
:1049C0001F910F91FF90EF900895FC0113821282C6
:1049D0008CE092E091838083758364830895BF9215
:1049E000CF92DF92EF92FF920F931F93CF93DF93BB
:1049F000CDB7DEB72D970FB6F894DEBF0FBECDBF93
:104A00008C014DEEC42E44E0D42EB12CE12CF12CBF
:104A10006B2DCE0101960E94AB23D6012D913D91C5
:104A20006D01F8018481958128173907B1F4CE0111
:104A300001960E94BD23843169F0CE0101960E9447
:104A4000BD238C3151F4CE0101960E94FF22892BA7
:104A500099F003C0EE24E394F12CB394F4E0BF1278
:104A6000D7CFEF2871F4D801ED91FC910480F58146
:104A7000E02DC801099505C0CE0101960E942224AF
:104A8000ECCF2D960FB6F894DEBF0FBECDBFDF91F1
:104A9000CF911F910F91FF90EF90DF90CF90BF903B
:104AA00008957F928F929F92AF92BF92CF92DF92A2
:104AB000EF92FF920F931F93CF93DF93CDB7DEB7A3
:104AC0002D970FB6F894DEBF0FBECDBF6C015B0112
:104AD0004A010E94EF245DEEE52E54E0F52E712C84
:104AE00000E010E0672DCE0101960E94AB23F70194
:104AF000219131917F01F601848195812817390731
:104B000031F4CE0101960E94BD238731C9F0739420
:104B1000F4E07F12E7CFC8012D960FB6F894DEBF00
:104B20000FBECDBFDF91CF911F910F91FF90EF90FE
:104B3000DF90CF90BF90AF909F908F907F9008951F
:104B4000A401B501CE0101960E94E522080F191FAC
:104B5000DECFBF92CF92DF92EF92FF920F931F931F
:104B6000CF93DF93CDB7DEB72D970FB6F894DEBFA6
:104B70000FBECDBF8C016B01CB010E94EF246DEE07
:104B8000E62E64E0F62EB12C6B2DCE0101960E942C
:104B9000AB23F701219131917F01F6018481958149
:104BA0002817390751F5CE0101960E94BD238731A0
:104BB00011F08C3111F5CE0101960E94FF22892B54
:104BC000E1F08B819C81F801938382838D819E81AA
:104BD000AF81B88584839583A683B78349855A8539
:104BE0006B857C85408751876287738788EE91E06B
:104BF000918380838D85848708C0B394F4E0BF12CD
:104C0000C3CF64E0C8010E94AB23C8012D960FB644
:104C1000F894DEBF0FBECDBFDF91CF911F910F91F2
:104C2000FF90EF90DF90CF90BF9008950F9300E03A
:104C300020E040E060E081E095E00E94F4320F91D6
:104C40000895DC01ED91FC91008CF18DE02D09942B
:104C50002CE432E0FC0131832083FB01408951893F
:104C600062897389FC014283538364837583089549
:104C7000FC01848995890895FC01818D928D0895A8
:104C8000CF93DF931F92CDB7DEB76983DC01ED913F
:104C9000FC910280F381E02D41E050E0BE016F5FA6
:104CA0007F4F09950F90DF91CF9108950895CF938D
:104CB000DF93EC01888D843061F00E942529E88D16
:104CC000F0E0EE0FFF1FE351FB4F1182108284E0F2
:104CD000888FDF91CF910895FC01178A168A6E5F45
:104CE0007F4F808D0C94EC2BFC01808D0C94322C2A
:104CF000CF93DF93EC019A018E899F89AB01BC01B0
:104D0000888D0E94A52B2E893F89280F391F3F8B44
:104D10002E8BDF91CF9108950F931F93CF93DF9345
:104D20001F92CDB7DEB78C01FC01818D928D892B4E
:104D300059F041E050E0BE016F5F7F4F808D0E94CF
:104D4000EA2A181619061CF08FEF9FEF08C0F80129
:104D5000818D928D0197928F818F898190E00F9044
:104D6000DF91CF911F910F910895CF93DF93EC01C5
:104D7000898D9A8D009719F48FEF9FEF10C0481717
:104D8000590708F0AC01888D0E94EA2A1816190606
:104D90009CF7298D3A8D281B390B3A8F298FDF918B
:104DA000CF910895CF93DF931F92CDB7DEB7FC016B
:104DB000218D328D232B49F0BE016F5F7F4F808D97
:104DC0000E94752B898190E002C08FEF9FEF0F90BA
:104DD000DF91CF910895FF920F931F93CF93DF93AD
:104DE000EC018B01888D8430E1F4F12C8F2D0E9431
:104DF000FD28811102C0F88E06C08831E1F3F394DA
:104E000084E0F812F3CF888D843059F01D870C8729
:104E10001A8E198E20E0A80162E00E944F2981E0DD
:104E200001C080E0DF91CF911F910F91FF90089515
:104E30000F931F93CF93DF93CDB7DEB728970FB6AD
:104E4000F894DEBF0FBECDBF8C01F801818D928D2D
:104E5000892B49F0D801ED91FC910680F781E02D76
:104E6000C8010995F2CF808D0E944A2B18161906A9
:104E700044F548E050E0BE016F5F7F4FD80158967F
:104E80008C910E94EA2A18161906ECF4BE016F5F95
:104E90007F4FC8010E960E9410338D8190E0982FAD
:104EA00088272E81820F911DF801958B848B8F812D
:104EB00090E0982F88272885820F911D928F818FEF
:104EC00002C080E090E028960FB6F894DEBF0FBED7
:104ED000CDBFDF91CF911F910F9108958F929F9237
:104EE000AF92BF92CF92DF92EF92FF920F931F93F8
:104EF000CF93DF9300D000D000D0CDB7DEB78C01C8
:104F00007B014A01FC01808D843009F063C073E0AD
:104F1000A72E74E0B72EC12CD12CC5010E94412DC3
:104F2000811103C0F801C08E0AC08831D9F3FFEFA8
:104F3000CF1ADF0AB394E4E0CE16D10471F7F8017A
:104F4000808D843009F446C096E0E6E1F1E0DE01B0
:104F5000119601900D929A95E1F7F70193819F7751
:104F60009C8394819D8395819E83B7016E5F7F4F63
:104F700090E0982F882744E050E0845F9B4F0E9488
:104F8000122DF801808D90E00496F82EEE24692D04
:104F9000C70140960E94882C682DC70141960E9447
:104FA000882CF801808D90E0982F882746E050E00B
:104FB000BE016F5F7F4F8A5F9B4F0E94122DF801E9
:104FC000128E118E20E8A40162E0808D0E944F298C
:104FD00081E001C080E026960FB6F894DEBF0FBED8
:104FE000CDBFDF91CF911F910F91FF90EF90DF9098
:104FF000CF90BF90AF909F908F900895CF93DF9305
:10500000EC011B821A8248EE53E060E070E04C83B2
:105010005D836E837F8386E192E099838883CE01EE
:105020000E960E94EA3284E0888FDF91CF91089536
:10503000CF92DF92EF92FF920F931F93CF93DF9364
:10504000CDB7DEB7AF970FB6F894DEBF0FBECDBFBA
:105050007C018B016A01CE0101960E94EA32CE01E9
:1050600009960E94FE27CE018A960E94EA3265EEDA
:1050700074E0CE0184960E948F22BE016C5D7F4F4A
:10508000CE0101960E94A61DAE01465D5F4FB8019C
:10509000CE0101960E94052081309105C1F4D7010F
:1050A000ED91FC910088F189E02D8CE492E09DA3C4
:1050B0008CA30CA51DA52EA53FA50EA31FA328A755
:1050C00039A7A601BE016C5D7F4FC7010995AF9658
:1050D0000FB6F894DEBF0FBECDBFDF91CF911F9109
:1050E0000F91FF90EF90DF90CF9008950F9300E025
:1050F00020E040E060E087E095E00E94F4320F910C
:105100000895CF92DF92EF92FF920F9330E0C12C7F
:10511000F2E1DF2EFAE7EF2EF12C4C155D056E055E
:105120007F0540F4F694E794D794C7943F5F3630F8
:10513000A1F737E041E04327211102C050E701C049
:1051400050E5242F30E03595279523700C70202BE7
:10515000252BFC012083417041830F91FF90EF903C
:10516000DF90CF90089590E0982F882744E050E09A
:10517000845F9B4F0C94122D282F30E02C5F3F4F03
:10518000922F8827860F971F0C94412D62E070E0C4
:105190000C94BC28FB01282F30E02C5F3F4F922F4E
:1051A0008827642F8E0F9F1F0C94882CCF93DF933A
:1051B000C82FD62F472F64E070E00E94CA284D2FD9
:1051C00065E070E08C2FDF91CF910C94CA28462FB8
:1051D00062E070E00C94CA28CF93DF93C82FD62FDB
:1051E000472F60E170E00E94CA284D2F61E170E016
:1051F0008C2FDF91CF910C94CA280F931F93CF93DC
:10520000DF9300D01F92CDB7DEB7182F00E021E06A
:1052100040E059E06DE370E0CE0101960E948128E4
:1052200089819A810E944D0963E070E0812F0E947C
:10523000BC288B830E9498208B810F900F900F9039
:10524000DF91CF911F910F9108950F931F93CF93EB
:10525000DF9300D0CDB7DEB7182F00E021E040E0AB
:1052600059E06DE370E0CE0101960E9481288981AA
:105270009A810E944D0940E150E0612F8FE095E056
:105280000E940B2F6FEF812F0E94E7280E94982029
:105290000F900F90DF91CF911F910F910895CF92B2
:1052A000DF92EF92FF920F931F93CF93DF9300D083
:1052B000CDB7DEB7182FD62E7A01C22E8FEF860F0C
:1052C0008530A8F5812F0E94252900E021E040E0EB
:1052D00059E06DE370E0CE0101960E94812889813A
:1052E0009A810E944D094D2D4C2960E070E0812F7C
:1052F0000E94CA28E114F10411F0B7010AC06091BC
:105300000D0570910E056F5F7F4F70930E056093D2
:105310000D05812F0E94D62841E050E0612F8FE0DB
:1053200095E00E940B2F0E94982081E001C080E050
:105330000F900F90DF91CF911F910F91FF90EF9001
:10534000DF90CF9008950F931F93CF93DF9300D0FA
:10535000CDB7DEB7182F00E021E040E059E06DE363
:1053600070E0CE0101960E94812889819A810E9475
:105370004D0963E070E0812F0E94BC28833121F049
:105380000E94982080E00AC042E050E0612F8FE048
:1053900095E00E940B2F0E94982081E00F900F90C3
:1053A000DF91CF911F910F910895CF92DF92EF92ED
:1053B000FF920F931F93CF93DF9300D0CDB7DEB74B
:1053C000182F7B016A01FB0180818F3F51F481819D
:1053D0008F3F99F482818F3F81F483818F3F69F4FD
:1053E00030C081110AC0FB018181811106C0828118
:1053F000811103C08381882321F1C114D10409F1F3
:1054000000E021E040E059E06DE370E0CE0101965C
:105410000E94812889819A810E944D09B701812FBC
:105420000E94B328B601812F0E94EC2844E050E08E
:10543000612F8FE095E00E940B2F0E94982081E061
:1054400001C080E00F900F90DF91CF911F910F91DD
:10545000FF90EF90DF90CF9008950F931F93CF931D
:10546000DF9300D0CDB7DEB7182F00E021E040E099
:1054700059E06DE370E0CE0101960E948128898198
:105480009A810E944D0948E050E0612F8FE095E03D
:105490000E940B2F0E9498200F900F90DF91CF91C8
:1054A0001F910F910895BF92CF92DF92EF92FF92DA
:1054B0000F931F93CF93DF9300D01F92CDB7DEB72A
:1054C000B82E6B017A01413088E0580718F0E12CC2
:1054D00098E0F92E00E021E040E059E06DE370E053
:1054E000CE0101960E94812889819A810E944D09EE
:1054F0006B2D8FE095E00E94792D8C0163E070E0C8
:105500008B2D0E94BC288B830E9498208B81873131
:1055100011F08C3131F40E94512F0E151F05D0F27D
:1055200002C0E12CF12C00E021E040E059E06DE305
:1055300070E0CE0101960E94812889819A810E94A3
:105540004D099701A6016B2D8FE095E00E94382E42
:1055500040E250E06B2D8FE095E00E940B2F8B2DE9
:105560000E94C62884FD22C063E070E08B2D0E945B
:10557000BC28811108C00E9498208B2D0E942529EB
:1055800080E090E01AC00E9498200E94512F00E015
:1055900021E040E059E06DE370E0CE0101960E9409
:1055A000812889819A810E944D09D9CF60E18B2D94
:1055B0000E94E7280E949820C7010F900F900F903B
:1055C000DF91CF911F910F91FF90EF90DF90CF90DF
:1055D000BF900895AF92BF92CF92DF92EF92FF9269
:1055E0000F931F93CF93DF9300D0CDB7DEB7182F63
:1055F0005B016A0100E021E040E059E06DE370E00A
:10560000CE0101960E94812889819A810E944D09CC
:10561000612F8FE095E00E94AD2D7C010097A1F4F1
:1056200063E070E0812F0E94BC28843119F1882347
:1056300009F121E030E08C3111F420E030E0EE247B
:10564000FF24E21AF30A16C0C816D9060CF4760134
:105650001E141F047CF400E09701A501612F8FE068
:1056600095E00E94BB2E40E450E0612F8FE095E072
:105670000E940B2F0E949820C7010F900F90DF917E
:10568000CF911F910F91FF90EF90DF90CF90BF903F
:10569000AF9008950F931F93CF93DF9300D000D066
:1056A000CDB7DEB7182F00E021E040E059E06DE310
:1056B00070E0CE0101960E94812889819A810E9422
:1056C0004D09612F8FE095E00E94AD2D8B839C8367
:1056D0000E9498208B819C810F900F900F900F90CB
:1056E000DF91CF911F910F910895EF92FF920F9349
:1056F0001F93CF93DF9300D0CDB7DEB7182F7B0178
:1057000000E021E040E059E06DE370E0CE01019659
:105710000E94812889819A810E944D0901E021E03F
:1057200030E0A701612F8FE095E00E94BB2E0E9420
:10573000982081E090E00F900F90DF91CF911F9122
:105740000F91FF90EF90089508959F92AF92BF92AE
:10575000CF92DF92EF92FF920F931F93CF93DF933D
:1057600000D0CDB7DEB7982E6B015A01790100E069
:1057700021E040E059E06DE370E0CE0101960E9427
:10578000812889819A810E944D09692D8FE095E0D9
:105790000E94792D8E159F0530F4692D8FE095E0DC
:1057A0000E94792D7C0187019501A601692D8FE06A
:1057B00095E00E94C92D0E949820C7010F900F907C
:1057C000DF91CF911F910F91FF90EF90DF90CF90DD
:1057D000BF90AF909F900895CF92DF92EF92FF928B
:1057E0000F931F93CF93DF9300D0CDB7DEB7182F61
:1057F0007B016A01FB018081811109C081818111D6
:1058000006C08281811103C083818823F1F0C11415
:10581000D104D9F000E021E040E059E06DE370E010
:10582000CE0101960E94812889819A810E944D09AA
:10583000B701812F0E94B328B601812F0E94EC2866
:105840000E94982081E090E002C080E090E00F90FC
:105850000F90DF91CF911F910F91FF90EF90DF900C
:10586000CF9008950F931F93CF93DF9300D0CDB7C0
:10587000DEB7182F00E021E040E059E06DE370E072
:10588000CE0101960E94812889819A810E944D094A
:1058900040E250E0612F8FE095E00E940B2F812FB6
:1058A0000E94C62884FD21C0812F0E94C62883FF44
:1058B00009C068E1812F0E94E7280E94982080E0BB
:1058C00090E01BC00E9498200E94512F00E021E030
:1058D00040E059E06DE370E0CE0101960E9481281E
:1058E00089819A810E944D09DACF60E1812F0E945F
:1058F000E7280E94982081E090E00F900F90DF91C0
:10590000CF911F910F9108952A9808952A9A08958A
:105910001F93CF93DF9300D0CDB7DEB7182F6A83E4
:1059200099830E94842C80EF0E9467099981892FB6
:105930000E946709812F0E9467096A81862F0E9451
:1059400067090E94862C81E00F900F90DF91CF9124
:105950001F910895CF93DF93EC016CE271E080E03A
:1059600090E00E94CB2F0E941B2F229A809121054C
:10597000882399F09FB7F89480912105813059F4DC
:105980008DB380931F052DB38091200580958223D0
:105990008DBB9FBF02C090931F0580E58CBD1DBCD1
:1059A00060E880E090E00E94882C65E58BE190E063
:1059B0000E94882C65E58AE190E00E94882C809105
:1059C0002105882361F09FB7F894209121058091EB
:1059D0001F05213019F48DBB9FBF01C08FBF80E030
:1059E00090E49983888380E090E69987888780E0B7
:1059F00098E49B838A8380E098E69B878A8780E08F
:105A000090E59D838C8380E090E79D878C8780E084
:105A100098E59F838E8380E098E79F878E87DF914C
:105A2000CF910895CF92DF92EF92FF920F931F9341
:105A3000CF93DF93EC017A018B016C01C40ED51E6C
:105A4000CC15DD05A1F00E94842C80EF0E9467092F
:105A50008D2F0E9467098C2F0E9467092196F801FB
:105A600081918F010E9467090E94862CE9CFC701AE
:105A7000DF91CF911F910F91FF90EF90DF90CF902A
:105A800008951F93CF93DF931F92CDB7DEB7182FE2
:105A900099830E94842C8FE00E9467099981892F45
:105AA0000E946709812F0E94670980E00E946709B0
:105AB00089830E94862C89810F90DF91CF911F915D
:105AC00008951F93CF93DF93182F60E270E00E9438
:105AD000BC28C82FD0E061E270E0812F0E94BC2872
